:020000040800F2
:10000000881F00205D020008954600088D46000804
:100010009146000811200008A959000800000000BE
:10002000000000000000000000000000014D00087A
:10003000CD21000800000000994600087D5200080C
:1000400077020008770200087702000877020008AC
:100050007702000877020008D1210008D9210008A2
:10006000770200087702000877020008770200088C
:100070009D210008A9210008B5210008C121000820
:10008000770200087702000877020008770200086C
:10009000770200087702000877020008770200085C
:1000A000770200087702000877020008770200084C
:1000B00077020008770200088552000877020008DE
:1000C000770200087702000877020008770200082C
:1000D0007702000891590008770200089D5900082E
:1000E00077020008770200087702000800F002F8A3
:1000F00000F08BF814A696E8000CB244B344DA453D
:1001000001D100F082F8BAE80F000FA696E830009F
:10011000A5EB040504EB0607AAEB0704A7F101070A
:100120004FEA15154FEA3414A4F10104AC4201D38F
:1001300000F06BF813F0010F18BFFB1A43F0010336
:1001400000F001F8DBE7184778830000988300008F
:100150000A4410F8014B14F00F0508BF10F8015BBA
:10016000240908BF10F8014B6D1E05D010F8013BA3
:100170006D1E01F8013BF9D1641E03D0641E01F825
:10018000015BFBD19142E4D370470000704700004F
:100190000023002400250026103A28BF78C1FBD890
:1001A000520728BF30C148BF0B607047662907F06F
:1001B0009F87672907F09C87692900F09781642948
:1001C00000F09481752900F09181782900F0CA81AE
:1001D000732900F00787002070471FB59DE80300D2
:1001E00000F032FC00F0D1FA01F0A6FA0400002081
:1001F000002107F045FA401C60600020002107F054
:1002000055FAE0601FBD10B510BD01F03DFC114670
:10021000FFF7E3FF05F040FD01F09EFE03B4FFF79A
:10022000F2FF03BC01F0CEFE0B49D1F800C04A68D2
:100230005CF8043B1068184442F8040B8C4528BF56
:10024000A1F1DC0C8A4228BFA1F1DC02C1F800C098
:100250004A6020F000407047FC04002009488047B5
:1002600009480047FEE7FEE7FEE7FEE7FEE7FEE798
:10027000FEE7FEE7FEE7FEE704480549054A064BB0
:100280007047000081520008ED0000088819002026
:10029000881F0020881B0020881B002070B50646A0
:1002A00000F0B2FB056806F10B0020F00704B44231
:1002B0009CBF002070BD2B466A68BAB11068A0428E
:1002C00010D304F1080188423CBF5068586007D33E
:1002D0005168101941601168091B01605860146071
:1002E000101D70BD13465268002AE7D121462846EA
:1002F00000F096FB0028DED170BD70B50446051FE6
:1003000000F082FB0068002C14BF446870BD002C14
:1003100018BFAC423CBF20466468F8D301680A1895
:10032000AA4218BF456003D12A68054611440160FE
:1003300028684119A1421CBF6C6070BD616869608A
:1003400021680844286070BD70B50D460646041F3C
:1003500000F05AFB0268BDB1DEB105F10B0020F0E0
:100360000701A9423CBF002070BD23688B4238BF03
:10037000506813D35A1A082A36D3601840F8042B51
:100380002160FFF7BAFF2FE03046FFF7B6FF0020ED
:1003900070BD2846BDE87040FFF780BF002818BF39
:1003A000A0423CBF02464068F8D303EB040C8445EE
:1003B0001CD1D0F800C06344994217D8A3EB010CBC
:1003C000BCF1080F0DD3D0F804C06318C3F804C003
:1003D000D4F800C000686044401A1860216053607F
:1003E00002E0236040685060201D70BD2846FFF782
:1003F00055FF050008D031462068021F284601F04D
:1004000043F9201DFFF779FF284670BD0FB41CB5D6
:100410000C0007AA009007D04142A14202D3204419
:10042000401E01E04FF0FF30074B7B4469460190CE
:10043000069800F0AAFD0021002C01D0009A11704E
:100440001CBC5DF814FB0000830B000070B5044673
:1004500085690068C10601D5302600E02026C00766
:1004600007D070BDD4E9012130469047206A401C76
:1004700020626D1EF6D570BD70B5044685690078A2
:10048000C00707D170BDD4E9012120209047206A20
:10049000401C20626D1EF6D570BD70B50C46054639
:1004A000012A05D02878800600D5EA69002302E0F9
:1004B000012305E05B1C934202D2E05C0028F9D1E5
:1004C000A869E618C01AA861286A18442862284654
:1004D000FFF7BCFF04E0D5E9012114F8010B9047B8
:1004E000B442F8D32846FFF7C7FF70BD2DE9F041AD
:1004F0000646002410687529314616A510D0AFF3C2
:100500000080002802DA404213A507E031688A071C
:1005100001D512A502E0490704D511A5012401E087
:10052000AFF3008000210A2206F1240709E0B0FBA6
:10053000F2FCB0FBF2F302FB1C003030785418469A
:10054000491C0028F3D123462A463046BDE8F04135
:1005500000F0AFBA000000002D0000002B000000EA
:100560002000000070B504460D4621461068AFF328
:1005700000802188090502D50F4A7A4402E00E4A1C
:100580007A440E32002104F1240305E000F00F0646
:100590000009965D5E54491C0028F7D1207800239D
:1005A000000704D5702D02D009B102231132204674
:1005B000BDE8704000F07DBA727C00002DE9F05F6C
:1005C000894604464FF0000ADFF874B1FB44C0F8D6
:1005D00020A02046E1688847002874D0252806D04E
:1005E000D4E901219047206A401C2062F1E70026EF
:1005F0005F462046E16888472028054607DB312D05
:1006000005D2781910F8200C08B10643F1E7B007BD
:1006100001D526F00406C4F81CA00027C4F818A0D1
:100620002A2D09D0284606F0AEFF38B304EB870820
:10063000303DC8F8185019E059F8041B204604EB67
:1006400087029161E1688847012F054618D1E0696A
:10065000002820DA26F020061DE0D8F8180000EB6C
:10066000800005EB40003038C8F818002046E168EB
:100670008847054606F087FF0028EED1012F0AD0F3
:100680002E2D08D12046E16888477F1C0546022FA1
:1006900046F02006C4DBA069002803DA404246F099
:1006A0000106A061F00701D026F010066C2D0BD0DA
:1006B000682D09D04C2D39D06A2D35D0742D35D008
:1006C0007A2D33D016E038E0E1682F46204688477F
:1006D000B842054609D16C2F26D04FF48060E168FE
:1006E000064320468847054604E06C2F1AD04FF495
:1006F000807006430DB3A5F14100192802D82035BA
:1007000046F400664A462946204626604E46FFF7D4
:100710004DFD80B101280BD0F61D26F0070000F139
:10072000080956E74020E4E78020D8E70020D6E714
:1007300006F104094DE7284652E7206ABDE8F09F1C
:10074000487C000070B5064600F062F90468054672
:1007500030460A22002100F03DFF2C6070BD0000F1
:100760000B4910B5A1F17C020A4CC2E937123721BE
:1007700006E000EB104342F82130074B00FB03403A
:100780000B1EA1F10101F4DC10BD0120E8E700001F
:100790009C040020E119D666CD0D0100014A00F04D
:1007A00051BF000000000020401ECAB210F8011F17
:1007B0008A4202D00029F9D10020704730B50546A1
:1007C0000B462A4613F8014B12F8010B08B1A04260
:1007D000F8D01CB1002802D06D1CF1E7284630BDCE
:1007E0000022CBB210F8011B994200D1421E002911
:1007F000F8D11046704710B5431C02E010F8011BF9
:1008000071B18107FAD14FF0013202C88C1A8C43C2
:1008100014EAC211F9D0C01A0A0603D0C01E10BDD6
:10082000C01A10BD0A0401D0801E10BD0902FCD000
:10083000401E10BD40EA010370B59B072ED14FF05A
:100840000136042A2AD308C810C99D1B9D43121FD4
:1008500015EAC61517D0D8B2E1B2401A50EA0561C0
:1008600010D198B2A1B2401A50EA05410AD123F042
:100870007F4024F07F41401A50EA052102D1180E32
:10088000A0EB146070BDA342DBD018BA21BA884235
:1008900001D9012070BD4FF0FF3070BD0AB90020B2
:1008A00070BD10F8013B11F8014B63B1A3420AD1AE
:1008B000521E08D010F8013B11F8014B1BB1A342A6
:1008C00001D1521EEDD1181B70BD4FF0000200B5D2
:1008D000134694469646203922BFA0E80C50A0E863
:1008E0000C50B1F12001BFF4F7AF090728BFA0E811
:1008F0000C5048BF0CC05DF804EB890028BF40F8DD
:10090000042B08BF704748BF20F8022B11F0804F1E
:1009100018BF00F8012B704710B5044610F0030F04
:1009200008BF11F0030F40F015804FF0013E121F79
:10093000C0F20E8051F8043BA3EB0E0C2CEA030C22
:100940001CEACE1C08BF40F8043BF0D0A1F1040122
:1009500002F10402521E08DB11F8013B00F8013BD2
:10096000002BF7D1114600F0C1FE204610BD00005B
:100970004FF0013C50F8042B51F8043B9A4221D12E
:10098000A2EB0C03934313EACC1317D150F8042BBA
:1009900051F8043B9A4215D1A2EB0C03934313EA9E
:1009A000CC130BD150F8042B51F8043B9A4209D1D7
:1009B000A2EB0C03934313EACC13DBD04FF00000FF
:1009C000704700BFD01A01BAB1FA81F101F01801E5
:1009D00022FA01F0CB40DBB2C0B2C01AC1F1200153
:1009E0002CFA01F3D11A914311EAC311E6D17047F1
:1009F000704770477047000010B500F09DFE001D65
:100A000010BD00BF7D6C0000004870470C05002041
:100A100000487047040500207047704770477047D2
:100A200038B504460A4600206946AFF30080002826
:100A300008BF38BD02460099204600F081FE012023
:100A400038BD012000F0FABFF8B5AFF300800546CD
:100A500000200C460C2000BF0646A819A0420DD964
:100A6000324669460020AFF30080070008BF00F05F
:100A7000E5FF0098A04218BF0546C419FFF7C4FF60
:100A800005600746F01D20F007004619284600F0D3
:100A90000AF8B44208BFF8BDA21B31463868BDE869
:100AA000F84000F04DBE00210160416070470C200D
:100AB00070472DE9F0470D4699469246044600F1ED
:100AC00024080168880604D5E06921F0100121603E
:100AD00000E00120A84201DD471B00E00027A169DA
:100AE0007A1902EB0900081AA0612078C00602D426
:100AF0002046FFF7ABFC002608E0D4E901211AF8F4
:100B000006009047206A401C761C20624E45F4DBAC
:100B10002078C0060AD52046FFF798FC06E0D4E905
:100B2000012130209047206A401C2062381EA7F126
:100B30000107F4DC07E0D4E9012118F8050090472B
:100B4000206A401C2062281EA5F10105F3DC204626
:100B5000FFF792FC2078000602D50220BDE8F0875E
:100B60000120FBE72DE9FF4F0C461E464FF0FF37F3
:100B70008BB0D2E90001DDF860800A908A46C1F3AB
:100B80000A5505B93D46002108464FF00000BAF16C
:100B9000000F00F4400005DA00EB80004FF4400144
:100BA00001EA50004FEA9059B9F1010F00DDB94652
:100BB0000A9850EA4A000ED044F61050A5F2FF35CC
:100BC00045432F14B8F1000F1ED07542291E1EDDBB
:100BD000C9F100021CE0B8F1010F4FF0000001D094
:100BE000302103E0F24305E02154401CB042FBDB1E
:100BF00030460022002121540B99C1F80880C1E938
:100C000000200FB0BDE8F08FBD1B6D1CDEE74A462B
:100C100000DA694206A800F09FFE06AB93E80700E1
:100C200003AB83E8070050460A9905F0E2FF8DE820
:100C30000700A0F500501F3800900398002D0ADD32
:100C400042F21F014A460844002303A90390684664
:100C500006F08EFA09E0A0F500504A461F3800233E
:100C600003A90390684606F0ADFA8DE8070000047A
:100C7000000C03D04FF0FF30410800E01046B8F1FF
:100C8000000F03D00022009215461EE0751E05D409
:100C900000F083FD303262556D1EF9D5B346012256
:100CA000084302D000227F1C04E02078302801D1C4
:100CB00000227F1E002A099784D01DE0112D07DA3B
:100CC00000F06BFD303262556D1C50EA0102F5D127
:100CD000084302D00098C8B10EE00021681E05E06C
:100CE000235C625C63542254401E491C8142F7DB42
:100CF000AB46A81B401E0990002004F80B000B987F
:100D0000099AC0F80880C0E9002B7AE711264FF055
:100D1000000857E72DE9F04F88460446D21D22F01F
:100D2000070191B0D1E90001CDE90A0106F096FB77
:100D300002460B98C00F01D02D2007E020688107E4
:100D400001D52B2002E0202101EAC000032A0990EE
:100D500001D0072A05DB03464146204600F06CFD22
:100D60000BE12078800601D5E06900E00620B8F1AB
:100D7000650F814606D0B8F1660F18D0B8F1670F3D
:100D800070D131E00020B9F1110F009001DB112387
:100D900001E009F101030AAA01A90CA8FFF7E2FE8C
:100DA000DDE90C70002609F10105834647E00120CA
:100DB0004B4600904FF000470AAA01A90CA8FFF784
:100DC000D1FEDDE90DB00C995D46002610B909F1A0
:100DD00001000D18B9EB050003D4C0F1FF3609F18D
:100DE0000105A5EB09002BE0B9F1010F01DA4FF085
:100DF00001090020B9F1110F0090484601DD1123CF
:100E000000E003460AAA01A90CA8FFF7ABFEDDE942
:100E10000C704D4600268346207800070AD4AB4567
:100E200000DA5D4601A8012D04DD411911F8011C0D
:100E3000302907D04F4502DA17F1040F04DA0120F8
:100E400082460FE06D1EEEE7002F02DCED1B3E44F4
:100E500003E0781CA84200DD7D1CB81B00F1010AEC
:100E60004FF000472078000703D4AA4501DB4FF07C
:100E7000FF3A0021B7F1004F0DF143088DF8431000
:100E800024D002202B23002F01DA7F422D230A21B8
:100E9000021EA0F1010000DC5FB197FBF1FC97FBA3
:100EA000F1F201FB1C7C17460CF1300C08F801CD67
:100EB000EEE7A8F1010003702188090501D545215D
:100EC00000E06521A0F1010800F8011C09980FA9B4
:100ED000A1EB0807FF1D00B10120411901EBEA70E9
:100EE000A1693844081A401EA0612078C00602D4C7
:100EF0002046FFF7ABFA099828B1D4E901219047C1
:100F0000206A401C20622078C00622D52046FFF7C8
:100F10009DFA1EE0002E04DBB34502DD01A8805DD2
:100F200000E03020D4E901219047206A401C206273
:100F3000761CAAF101005FEA000A0AD100F0FCFB6E
:100F4000C0680168405CD4E901219047206A401CD8
:100F50002062281EA5F10105DCDC07E0D4E90121AF
:100F600018F8010B9047206A401C2062381EA7F138
:100F70000107F3DC2046FFF77FFA032011B041E6BA
:100F800001694A1C02610878704700B58FB0CDE94D
:100F900001310021059105497944CDE9031011463D
:100FA0006846FFF70BFB0FB000BD0000E5FFFFFF39
:100FB000D1E900239A4202D2531C0B601070704793
:100FC00010B5436913B1AFF3008001E0FFF765FA94
:100FD000012010BD127800F124010A7000224A702D
:100FE0000122EDE711684FF0FF32E9E72DE9FF4FED
:100FF00006468BB00878FF2806D0491C2D2805D05E
:1010000000244FF0000908E000200CE00124F8E77C
:1010100009EB8903491C00EB43090878FF28F7D145
:1010200014B1C9F100008146107800252C46AA466B
:1010300029462D2801D02B2804D1521C2D2813D04D
:10104000002082468B461078FF280FD04FF0000C0E
:101050000A21521CA5FB017804FB018105FB0C1140
:10106000C5194BEB0104EEE70120EAE70021084631
:101070004FF00000BAF1000F02D000EB80004008F2
:10108000C0F38157012F01DD4FF0FF370E9955EA6C
:10109000040009EB01080BD04FF0020918F5FA7FA4
:1010A00016DA4FEACA70002F706008DD012007E0F1
:1010B0004FEACA70C6E900B00FB0BDE8F08F00205B
:1010C0003060FFF7A5FCC0F800901821084616E034
:1010D000B8F5FA7F18DD002F02DAF748784401E00E
:1010E000F6487844D0E90010C6E9001040EACA701A
:1010F0007060FFF78DFCC0F80090142108460FB017
:10110000BDE8F04F06F0F1BF002108464FF00000A7
:10111000B8F10001099002DAC7F1000200E03A4696
:1011200001DAC8F1000106A800F016FC06AB93E84E
:10113000070003AB83E8070044F23E005BEA0401CA
:101140000090584604D144F21E012C465D460091A1
:10115000210C0904014306D10099240444EA1544F2
:101160002D041039009104F07F41014306D100990C
:10117000240244EA15642D020839009104F07041FC
:10118000014306D10099240144EA15742D01091F79
:10119000009104F04041014306D10099A40044EAC3
:1011A0009574AD00891E009104F00041084304D1FC
:1011B00000986D196441401E00904FF001033A46BB
:1011C0006846B8F1000FCDE9014503A902DD06F03C
:1011D0000EF801E005F0E1FFBAF1000F04460D46FC
:1011E00001D084F00044002108464FF00000099926
:1011F00040F2FF77484010F00C0F07D124F0004078
:10120000284303D0C4F30A50B84212D1FFF700FCC0
:10121000C0F80090C4F30A50B8420AD1A8487844F4
:10122000D0E90010C6E9001004F0004108437060E6
:1012300042E7C6E900543FE72DE9FF4F1F464FF054
:10124000000A4FF0FF38454691B0D7E90146CDF886
:101250003CA000F071FAC0680168405C1090B96968
:1012600012986D1C8847396A814688470028F6D154
:10127000B9F1FF3F0AD0002E24F4D06411DDB9F19A
:101280002B0F08D0B9F12D0F0BD102E0404615B05D
:1012900013E744F48064B96912986D1C8847761E80
:1012A0008146600504A901D52D2000E02B20002EE9
:1012B00001F1010B0DF130088DF810003FDDB9F19F
:1012C000690F08D0B9F1490F05D0B9F16E0F02D0FE
:1012D000B9F14E0F1CD13B4601A8009580E85002A1
:1012E000DDE912126FF0020006F068FFC11CCED1DA
:1012F0000EE0B96912986D1C884781461398761ED6
:1013000044F4007405600F98401C002E0F9016DD09
:10131000B9F1300FEDD0B9F1780F02D0B9F1580F13
:101320000DD10F9801280AD13B46CDE90054DDE9E3
:101330001212001F029606F03FFFC11CA7D11099A0
:1013400089453ED144F0800406E01399681CAAF157
:10135000010A44F400740860B9696D1C1298761E85
:10136000884730288146F0D02BE01099894505D177
:10137000200603D4761E44F0800418E0484606F0A8
:1013800002F908B3761E0DF123029345A9F130004E
:1013900044F4007406D20BF8010B200607D5AAF11D
:1013A000010003E0200602D40AF101008246A005F4
:1013B00002D51399681C0860B96912986D1C88479A
:1013C0008146002ED1DC53E0002E51DDB9F1650FCE
:1013D00002D0B9F1450F4BD1A00549D5B9696D1CB3
:1013E0001298761E24F440748847002E81460CDD46
:1013F0002B2804D0B9F12D0F07D144F48074B969BA
:1014000012986D1C8847761E8146E00501D52D2176
:1014100000E02B2108F8011BCDF8008021E0761EAA
:101420000DF13901884544F400740CD2A9F1300063
:1014300010F0FF0088F8000002D10099884509D912
:1014400008F1010806E0E00501D51E4801E042F27E
:101450000F708246B96912986D1C884781461398AF
:101460000560002E04DD484606F08DF80028D6D130
:10147000F96912988847FF2053468BF8000088F8D6
:10148000000000200A900B9004AA0CA90AA8FFF7FC
:10149000ADFDA00502D46FF00100F8E614F0240FB2
:1014A00012D0E0071CD13868DDE90A12031D3B6049
:1014B0000068C0E9001213E008740000FA7300002D
:1014C000BE720000F1D8FFFF0AA9684605F0EAFFE6
:1014D000E00705D13868009A011D39600068026094
:1014E0002846D4E6426842B1016811F8013B23B1B5
:1014F000521EC0E90012184670470121C160881EC3
:10150000704742685AB1C368016843B983688B4227
:1015100005D0491E521CC0E90012002070474FF050
:10152000FF3070470FB40B0010B54FF000048AB0C5
:101530000FA900910E99CC60234C7C44234A7A4435
:10154000CDE9064200D004236FF00042CDE901321C
:101550001F4A7A446B4608920246002006F02AFE93
:101560000AB010BC5DF814FBF0B507464FF0FF3031
:101570001E4615460C463B4685B06A460091CDE9AD
:10158000010131460020049004A8FFF7CBFF049925
:101590000346601825B109B1024600E022462A60E0
:1015A00000290ED0002B02DD0099814209D03B4674
:1015B0006A463146001B0094CDE9010404A8FFF7F8
:1015C000B1FF05B0F0BD0000A7FFFFFFC1FFFFFFA7
:1015D000CF0200002DE9F04791460F4680460446B1
:1015E000002614F8015B2DB1FFF706FA0068405D94
:1015F000C007F6D12B2D02D02D2D18D0641E4A46DF
:101600003946204600F058F927B13968A14201D186
:10161000C7F800804FF0020471050BD54042002846
:1016200003DDFFF7F5F90460A007BDE8F08746F495
:101630008066E4E70028F8DAFFF7EAF904606FF063
:101640000040F2E72DE9F04115460E46040002D1B4
:101650002C6804B90BA4204600F007FA0444207853
:1016600070B127463146384600F0EFF9044420783F
:1016700010B1002004F8010B38462C60BDE8F08161
:101680000027F9E70000000010B5203AC0F00B80F9
:10169000B1E81850A0E81850B1E81850A0E8185068
:1016A000203ABFF4F5AF5FEA027C24BFB1E81850DE
:1016B000A0E8185044BF18C918C0BDE810405FEA40
:1016C000827C24BF51F8043B40F8043B08BF7047BC
:1016D000D20728BF31F8023B48BF11F8012B28BFC1
:1016E00020F8023B48BF00F8012B70474FF0000282
:1016F0000429C0F0128010F0030C3FF4E8A8CCF1EC
:10170000040CBCF1020F18BF00F8012BA8BF20F891
:10171000022BA1EB0C01FFF7DAB85FEAC17C24BF12
:1017200000F8012B00F8012B48BF00F8012B70478F
:101730000048704704050020004870472405002039
:10174000034640688C46002818BF88423CBF0346C9
:101750004068F8D318681844884207D00CF1030099
:1017600020F00700001D411A521A0146081D0A60A8
:10177000FEF7C3BDB2F120030AD5C2F1200301FA7E
:1017800002F120FA03F341EA030100FA02F0704784
:1017900000FA03F14FF00000704730B5B0F10A02D3
:1017A00071F100034FEA900E4EEA817EB0EB0E001D
:1017B00061EB91014FEA101E4EEA017E10EB0E0024
:1017C00041EB11114FEA102E4EEA016E10EB0E00A4
:1017D00041EB11214FEA104E4EEA014E10EB0E0084
:1017E00041EB1141401841F100014FEAD00040EABD
:1017F00041704FEAD1014FEA810444EA907410EB42
:10180000800544EB01046D1944EB0404521BA34111
:101810004FF0000348BF0A3200D530BD401C41F1F3
:10182000000130BD10B50446FFF7E6F80068005D22
:1018300000F0010010BD00002DE9F0411F460446F4
:1018400003260168072A01F4006004DB08B116A52D
:1018500005E016A503E008B115A500E015A521F0E7
:1018600010002060A069C01EA0610FB1401EA061E1
:101870002046FEF7EBFD4FB1D4E9012138469047F1
:10188000206A401C2062C01C206206E0206AFAE741
:10189000D4E9012115F8010B9047761EF8D22046B5
:1018A000FEF7EAFDBDE8F0814E414E006E616E002C
:1018B000494E4600696E66002DE9F05F8246154686
:1018C0008B4600270AF10104B9460078302801D080
:1018D0009DB113E014F8010B0127782803D0582894
:1018E00001D045B10AE00DB1102D07D1002714F841
:1018F000010B102502E0082500E00A250026B0466D
:101900000EE005FB080005FB06F101271FFA80F831
:1019100001EB1046B6F5803F00D3B94614F8010B31
:10192000294600F0E1F80028EBDABBF1000F05D002
:101930000FB1641E00E05446CBF80040B9F1000F2F
:1019400006D0FFF765F802210160C81EBDE8F09FD0
:1019500048EA0640FAE700002DE9F04781461646BE
:101960008AB0354878440DC88DE80D003248784477
:10197000801C03AC0DC884E80D0041F69B30084480
:10198000372190FBF1F290FBF1F5A5F1800501FB09
:1019900012041B3C02D56442012000E00020DFF865
:1019A00098A080460027FA44AAF1BE0A0EE0E0079C
:1019B0000AD03246684607EB470101230AEB810152
:1019C00005F000FC8DE8070064107F1C002CEED1B0
:1019D000194F7F44AE3F19E0E80715D007EB04101C
:1019E0000DF1180A90E80E008AE80E00C068F04277
:1019F00001D1981908903246012306A903A805F0E1
:101A0000E1FB03AB83E807006D10641C002DE3D1FC
:101A10004FF0010332466946B8F1000F03A802D027
:101A200005F0A6FB01E005F0CDFBC9E90001C9F80E
:101A300008200AB0BDE8F0874069000010B500F04A
:101A400099FABDE8104000F090BA30B503461D7811
:101A50001DB10A4603E0AC4201D1181A30BD12F89C
:101A6000014B002CF7D15B1CF1E730B503461D7824
:101A70003DB10A4612F8014B1CB1AC42FAD15B1CD5
:101A8000F5E7181A30BD70477546FFF751FEAE46B0
:101A900005006946534620F00700854618B020B57A
:101AA000FEF7EAFBBDE820404FF000064FF00007CC
:101AB0004FF000084FF0000BAC46ACE8C009ACE8B2
:101AC000C009ACE8C009ACE8C00921F007018D46A7
:101AD000704710B5FEF79CFF006810BD10B50446B6
:101AE000FEF796FF046010BD3A2800D2303820F08F
:101AF0002002412A01D3A2F13700884201D34FF0DE
:101B0000FF3070472DE9FF4F1F464FF03C0987B06B
:101B10004FF00042DDE9141001F10108DDF858A092
:101B200002EA405003900020059083460546044693
:101B30000490B969461E08988847AAF1010A0290E4
:101B4000BAF1000F3BDD02982E2815D01021FFF7C7
:101B5000CBFF00282EDB4FF0010B0599014317D076
:101B6000B9F1000F0BDB4A46C117FFF703FE05432F
:101B70000C43A9F1040905E0012004900BE008B131
:101B800045F0010501200590049820B9361D02E0BA
:101B9000049800B1361FB969089808F10108884710
:101BA000BBF1000FAAF1010A0290C9D00999C1F84E
:101BB0000080C5E70298702808D0502806D0F9693F
:101BC00008988847BBF1000F14D04FE00020029026
:101BD0000120BBF1000F049009D0B969089808F101
:101BE00001088847AAF10109B9F1000F07DCF9697A
:101BF000089888476FF001000BB0BDE8F08F2B28E4
:101C000004D02D280CD14FF0FF300490B96908980A
:101C100008F101088847A9F10109B9F1000FE6DDD3
:101C2000411CE4D00A21FFF75FFF0028DFDB0299A7
:101C300008F1010801EB810100EB41000290B96954
:101C4000089888470A21FFF74FFF099AA9F101096F
:101C5000B9F1000FC2F8008001DD0028E7DAF96968
:101C6000089888470499029800FB016655EA040029
:101C700004D004F04041090002D006E0039898E047
:101C8000A40044EA9574AD00B61E04F000410800BB
:101C900002D16D196441761E159810F0240F03D0FF
:101CA0004FF00B095C4803E04FF028096FF07D000E
:101CB0008246564507DAAAEB06018944B9F1410F7D
:101CC00001DD4FF0410901200021A9F10102FFF7D8
:101CD00051FD024628400B462140084301D0012116
:101CE00000E00021501E029143F1FF3128402140C5
:101CF000084301D0012000E000200299834651EA08
:101D00000B014FD0002108464FF00000039900F46A
:101D1000400039B100EB80004FF4400100EBD0707F
:101D200001EA60008015012802DD4FF0FF3000E07D
:101D300013D0401C36D0029860B3BBF1000F0CD119
:101D40004A4601200021FFF715FD284021400843A5
:101D500001D0012000E00020E0B101204A4600212E
:101D6000FFF708FD034640190A4661412D1A8C41D0
:101D700011D3B9F1400F09DD159810F0240F02D0EE
:101D8000AAF1340603E0AAF1170600E0761C00254C
:101D90004FF0004406E05B1E42F1FF3220EA0305EB
:101DA00021EA0204CAF10100B04206DA1B49039895
:101DB00008430190002000900EE0039AC4F3D32161
:101DC000E80A0A43164940EA44500A433146CDE93D
:101DD0000002684605F0CCFB159810F0240F0BD0DC
:101DE0001598C00715D13868DDE90012031D3B6066
:101DF0000068C0E900120CE002A8694605F052FB39
:101E00001598C00705D13868029A011D396000682D
:101E100002604046F0E6000002FCFFFF0000F07F99
:101E20000000F03F2DE9FF4F92461D4685B04FF070
:101E30000041DDE9124BDDE914727F1E01EA4B50CF
:101E4000414940F0FF4940EA0108002122F020000A
:101E50004928049102D04E2828D04CE03BA001260E
:101E600007C88DE80700A9690698641C88477F1E8B
:101E7000014606D41DF8060018B121F02001814268
:101E80000BD0E96906988847032E34D0082E32D04B
:101E90006FF0010009B0BDE8F08F761C032E01D071
:101EA000082EE0D1601CCAF80000DCE7A96906989A
:101EB000641C88477F1E2AD420F02000412826D1A8
:101EC000A9690698641C88477F1E20D420F0200052
:101ED0004E281CD1A9690698641C88477F1E48F4C7
:101EE000002849F48009CAF8004001D4282806D007
:101EF000E969069888475FEACB7012D022E0A969A9
:101F00000698641C88477F1E01D4002803DAE9691B
:101F100006988847BCE72928F1D1641CCAF800401C
:101F2000E9E71BF0240F07D028680499031D2B60F4
:101F30000068C0E9001805E02868021D2A600068F2
:101F4000C0F800902046A5E70000F07F494E4649C2
:101F50004E4954590000000010B50446AFF300800C
:101F60002046BDE81040FEF759B9002801D000F026
:101F700029B8704710B5012805D0002103A000F052
:101F800027F8012010BD09A1F8E700005349475286
:101F9000544D454D3A204F7574206F662068656139
:101FA00070206D656D6F7279000000003A20486501
:101FB0006170206D656D6F727920636F72727570DC
:101FC0007465640001491820ABBEFEE726000200DC
:101FD00070B505460C460A2000E06D1C00F011F8B3
:101FE00035B128780028F8D102E0641C00F009F827
:101FF00014B120780028F8D1BDE870400A20AFF372
:10200000008008B569468DF800000320ABBE08BD0E
:10201000FEE7000010B540F6E01048F22941C2F298
:102020000000C0F60001FEF7C9FB40F26C54C2F29A
:10203000000438B140F20C00C2F20000012101702E
:102040002DE000BF40F6E01048F26541C2F200000A
:10205000C0F60001FEF7B2FB30B140F20C00C2F254
:102060000000002101701AE040F6E01048F23D4106
:10207000C2F20000C0F60001FEF7A0FB10B1012083
:102080000CE000BF40F6E01048F23241C2F200001E
:10209000C0F60001FEF792FB08B10020207040F668
:1020A000E010C2F200004FF40071FEF70EFCE06A8F
:1020B000406810BD10B541F2F040C2F2000001F0DE
:1020C000FDF840F26C54C2F20004002048F21441C2
:1020D000A08028A0C0F6000142F2107202F002FFB8
:1020E000002845D04FF47A7000F062FA48F21441AB
:1020F00023A0C0F6000140F6B83202F0F3FE00283B
:1021000008BF10BD4FF47A7000F052FA48F2144143
:102110001FA0C0F600014FF4FA6202F0E3FE38B3EC
:102120004FF47A7000F044FA40F20110A08040F2BF
:10213000E070C2F200004FF40071FEF7C6FB41F2FE
:102140003850C2F2000000684FF40071406840F659
:10215000E010C2F20000FEF7B8FBE06A406841F20E
:10216000F040C2F20000BDE8104001F06FB800BFBF
:1021700010BD00BF41542B43574A41503F0000005F
:1021800041542B4D515454434F4E4E3F00000000DC
:1021900041542B4D5154545355423F0041F2AC40F1
:1021A000C2F2000000F0A2B841F26840C2F20000A2
:1021B00000F09CB841F22440C2F2000000F096B852
:1021C00041F2E030C2F2000000F090B87047000029
:1021D000012000F05FBA0000022000F05BBA0000AE
:1021E000EFF3108072B600BFFEE70000014690F8E2
:1021F0002100022816D10868D1E90FC3026822F035
:102200000E020260026822F001020260012000FA60
:1022100003F2CCF8042081F821000020002281F88C
:1022200020207047042088630120002281F82020AC
:102230007047000090F82110022923D1026840F273
:10224000040C1168C4F2020C21F00E011160136835
:102250002F21C4F202018A4223F00103136015DD2D
:102260003023C4F202039A421CD04423C4F2020376
:102270009A421BD05823C4F202039A421CD14FF455
:10228000803321E004218163012070470823C4F2D8
:1022900002039A420ED01C23C4F202039A420BD1CD
:1022A000102311E04FF480730EE000BF4FF4805311
:1022B0000AE000BF012307E00CF168014FF08073D2
:1022C0008A4208BF4FF480130121CCF8003080F817
:1022D0002110416B0022002980F8202004BF00203B
:1022E000704780B58847002080BD000010B5D0E958
:1022F0000FCE0168DCF800300A6823FA0EF35C07A1
:102300002AD512F0040427D00A68920603D40A687A
:1023100022F004020A602F22C4F20202914240F22B
:102320000402C4F202025BDD3023C4F202039942CC
:1023300072D04423C4F20203994273D05823C4F2EA
:102340000203994240F07A804FF480231360C16AFF
:10235000002940F098806FE09C0727D512F0020416
:1023600024D00A68920606D40A6822F00A020A609B
:10237000012280F821202F22C4F20202914240F271
:102380000402C4F202023BDD3023C4F2020399428C
:1023900060D04423C4F2020399425FD05823C4F2B0
:1023A0000203994260D14FF4003365E01B0743D527
:1023B00012F0080208BF10BD0A6822F00E020A607F
:1023C000012101FA0EF2CCF80420816380F821107B
:1023D000016B0022002980F8202054D12CE000BF9E
:1023E0000823C4F20203994222D01C23C4F2020340
:1023F000994223D140231360C16A002943D11BE0D5
:102400000823C4F2020399422CD01C23C4F2020315
:10241000994229D120232FE04FF480631360C16AD1
:1024200089BB09E04FF480431360C16A59BB03E0E4
:1024300004231360C16A31BB10BD00BF02F1680400
:102440004FF08063A14208BF4FF480031360C16A5C
:10245000C9B9F1E74FF400730EE000BF4FF4005329
:102460000AE000BF022307E002F168044FF00073A6
:10247000A14208BF4FF400131360816A00220029B3
:1024800080F82020D8D0BDE8104008470146002839
:102490004FF0010008BF70472DE9F043D1F800C0AC
:1024A0004FF6F873CBF6FD734CF6CD426344CCF691
:1024B000CC42A3FB02236FF0030202EA9302002343
:1024C000C4F2020301F10C08C1E90F320222D1E982
:1024D000019E98E8F00181F82120DCF8002043F605
:1024E000F0739A4342EA090242EA0E0222432A4367
:1024F00032433A4342EA0802CCF8002000228A63C1
:1025000081F8210081F820200020BDE8F0437047C9
:1025100090F820C0BCF1010F04BF02207047F0B555
:102520004FF0010E80F820E090F821C0BCF1010FBF
:1025300026D14FF0020C80F821C04FF0000CC0F8FB
:1025400038C0D0E900C4C56AC66BDCF80070102C36
:1025500027F00107CCF80070006C0EFA00F07060F4
:102560000846CCF8043004BF10460A46CCF80800F0
:10257000CCF80C20DCF8000045B140F00E000DE076
:10258000002180F820100220F0BD00BF20F00400E0
:10259000CCF80000DCF8000040F00A00CCF80000A5
:1025A000DCF8000040F00100CCF800000020F0BD95
:1025B000B0B5044600F08EF9054640F20400C2F2C0
:1025C00000000078611C18BF044400BF00F082F9CD
:1025D000401BA042FAD3B0BDB0B5044600F07AF972
:1025E00040F26C55C2F200056969401AC82838BF2C
:1025F000B0BD022C1CD0012C47D140F60000C4F223
:1026000001000121012400F059F940F6E031C2F245
:10261000000148B3002228690A800021044605F021
:10262000E3FAF8B90021CBF68071204627E000BF1D
:1026300040F60000C4F20100022100F03FF940F62C
:10264000E031C2F20001A8B1002228694A804FF0AF
:102650007E51044605F0C8FA20B920464FF04041AB
:102660000DE000BF20460DE028690C804FF07E5140
:1026700005E000BF012228694A804FF0804105F043
:102680000BFA286105F0C0FBA88400F023F968610B
:10269000B0BD000040F21441C4F201010A680242D8
:1026A00014BF08607047FFF797BF00002DE9F04F97
:1026B00082B00E68002E00F0FD8041F20042C4F2AC
:1026C0000102042340F2004E904208BF03234FF65C
:1026D000FF7CC4F2010E009300240123C1F2100C10
:1026E0004FF0000A4FF000094BE000BF41F200023A
:1026F000C4F20102009F904208BF022704F00C03BD
:102700000F229A402BEA020207FA03F34FEA9A05D6
:102710001A4346F825204E6840F20C45F202DEF8D6
:10272000082054BF22EA080242EA0802C4F2010566
:10273000CEF808202A68B30254BF22EA080242EA0F
:1027400008022A60B303DEF8042054BF22EA08021C
:1027500042EA0802F303CEF80420DEF800204FF02E
:10276000010354BF22EA080242EA0802CEF8002020
:102770000E680AF1010A36FA0AF204F1040400F0C4
:10278000998003FA0AFB16EA0B08F1D04E686645F9
:1027900012DC122E56D8DFE806F0350B4D495555A0
:1027A000555555555555555555555545510000BF2D
:1027B000D1F80C9046E000BF4FF6FF72C1F2210243
:1027C00096420FDC0022C1F2110296421AD000227A
:1027D000C1F21202964215D00022C1F221029642A5
:1027E00010D02FE00022C1F2220296420AD000222D
:1027F000C1F23102964205D00022C1F23202964265
:1028000020D100BF8A684AB1012A14BFC0F814B0B1
:10281000C0F810B04FF0080914E000BF4FF00409F1
:1028200010E000BFCA6802F104090BE04FF0000994
:1028300008E000BFCA6802F1080903E0CA6802F1B3
:102840000C0900BF02462646B8F5807F24BF04323B
:10285000203E17680F25B54027EA050509FA06F658
:1028600035431560CA79D2067FF582AF41F218036D
:10287000C4F202031A68AEF57E7642F001021A60D5
:102880001A6802F001020192019A2AF0030256F836
:1028900002B040F60002C4F20102904208D040F6B5
:1028A0000042C4F2010290427FF420AF012725E7E5
:1028B000002723E702B0BDE8F08F000080680840E1
:1028C00018BF012070470000002A08BF09040161F9
:1028D0007047000041F68010C2F2000000687047A7
:1028E00040F2040041F68011C2F20000C2F2000181
:1028F00000780A68104408607047000080B542F212
:102900000000C4F20200016841F0100101600320E0
:1029100000F08CF80F2000F005F800F027F80020F8
:1029200080BD000070B540F20406C2F2000640F21D
:1029300010413278C2F200014FF47A730968B3FB98
:10294000F2F20446B1FBF2F1084600F085FB0F2CD1
:102950004FF0010508D838B94FF0FF30214600226A
:10296000002500F037F87460284670BD82B041F24F
:102970001800C4F202000168022241F00101016066
:10298000016801F0010101910199416841F0805114
:102990004160406800F08050009000980420C4F22C
:1029A0000100016862F31A61016002B07047000023
:1029B000002848BF704700F01F01012202FA01F110
:1029C0001C2202EAD0004EF20012CEF20002815028
:1029D0007047000010B54EF60C5CCEF2000CDCF82F
:1029E0000030C3F3022E8EF00704042C28BF042409
:1029F000BEF103034FF0FF3E0EFA04F438BF00238C
:102A0000A14399400EFA03F39A43114300F00F02D9
:102A100000F160430901043A03F56443624400286D
:102A200048BF02F10C03197010BD00004EF60C51A6
:102A3000CEF200010A684FF6FF031A4060F30A2243
:102A400042F0806040F0FD7008607047002804BFCD
:102A5000012070472DE9F04381B042F20008C4F232
:102A600002080446D8F800000D4600F0070088422E
:102A70000CD2D8F8000020F007002843C8F8000066
:102A8000D8F8000000F00700A8426CD1206841F29D
:102A900004098107C4F2020917D5410705D5D9F801
:102AA000001041F4E061C9F80010010705D5D9F81C
:102AB000001041F46051C9F80010D9F80010A26864
:102AC00021F0F0011143C9F80010C00742D1D8F835
:102AD000000000F00700A8420CD9D8F8000020F050
:102AE00007002843C8F80000D8F8000000F00700ED
:102AF000A84238D12068410707D5D9F80010E2680C
:102B000021F4E0611143C9F80010000708D5D9F895
:102B10000000216920F4605040EAC100C9F80000BB
:102B2000D9F8002002F00C00082841F20020C0F281
:102B30007A004DD148F21C33C2F38341C0F6000342
:102B4000595CD20338D440F60010C0F23D0048432F
:102B50003EE000BF606859F8041C022808D0012834
:102B600026D1890306D4012001B0BDE8F08300BF5F
:102B70008901F8D5D9F8001021F003010843C9F8FC
:102B80000000FFF7A7FE064641F28837D9F800009B
:102B9000616800F00C00B0EB810F98D0FFF79AFE4F
:102BA000801BB842F2D9032001B0BDE8F08300BF1A
:102BB0008907D8D5DEE700BFD9F8002048F2D8232E
:102BC000C2F34042C0F600039A5C4843B0FBF2F007
:102BD000D9F8001048F2C022C1F30311C0F6000278
:102BE000515C40F2104220FA01F140F20800C2F2BA
:102BF00000000068C2F200021160FFF793FE00209F
:102C000001B0BDE8F083000040F2104041F2040141
:102C1000C2F20000C4F202010068096848F2D02242
:102C2000C1F30221C0F60002515CC84070470000A9
:102C300040F2104041F20401C2F20000C4F202016D
:102C40000068096848F2D022C1F3C221C0F6000230
:102C5000515CC84070470000002804BF0120704745
:102C60002DE9F04182B00446007841F20006C00729
:102C7000C4F202060CD0706800F00C00042840F08A
:102C800081803068800303D56068002800F04681A9
:102C9000207880071BD5706810F00C0F09D0706881
:102CA00000F00C00082840F087807068C00300F135
:102CB00083803068800703D52069012840F02E8189
:102CC0003068616920F0F80040EAC1003060207887
:102CD000000713D4207840072CD4E569002D00F0BC
:102CE0001881706800F00C00082840F0A780012DC2
:102CF00040F00481012002B0BDE8F081A069002805
:102D000000F084800020C4F242200121C0F8801429
:102D1000FFF7E0FD054600BF706A800700F1B28052
:102D2000FFF7D8FD401B0228F6D9032002B0BDE80A
:102D3000F08100BFF0695FEAC00808D4F06940F094
:102D40008050F061F06900F080500090009847F2E8
:102D50000007C4F200073868C00549D4386840F459
:102D600080703860FFF7B6FD054600BF3868C005C3
:102D70003ED4FFF7AFFD401B6428F7D9032002B013
:102D8000BDE8F081706800F00C00082803D170687D
:102D9000C0033FF576AF61683068002900F00C8110
:102DA000B1F5A02F00F00081B1F5803F40F01A810D
:102DB00040F480301CE100BF2069002840F2000090
:102DC000C4F2422000F0888001210160FFF782FDFB
:102DD000054600BF306880073FF572AFFFF77AFD08
:102DE000401B0228F6D9032002B0BDE8F08100BFE5
:102DF000E168306A002900F09D80052900F092808A
:102E0000012940F0AF8040F00100B1E00020C4F2A1
:102E100042200021C0F88014FFF75CFD054600BF8A
:102E2000706A80077FF556AFFFF754FD401B0228FC
:102E3000F6D9032002B0BDE8F08100BF0027C4F23C
:102E4000422700203866FFF745FD022D05460DD1CB
:102E50003068800140F1DE80FFF73CFD401B022816
:102E60004FF00300F4D902B0BDE8F0813068800172
:102E70004FD5FFF72FFD401B02284FF00300F5D977
:102E8000F1E700BF40F21040C2F20000006844F6D3
:102E9000D351C1F26201A0FB0101480A019000BFB9
:102EA00000BF0198411E002801913FF413AF00BFFD
:102EB0000198411E002801913FF40CAF00BF01981A
:102EC000411E002801913FF405AF00BF0198411E4B
:102ED00000280191E4D1FDE600210160FFF7FAFC32
:102EE000054600BF306880077FF5F1AEFFF7F2FCC2
:102EF000401B02284FF00300F4D9B4E77068216A40
:102F000000F480328A4209D1616A00F4701088426C
:102F100004D1002002B0BDE8F08100BF012002B062
:102F2000BDE8F08140F004003062306A40F00100FA
:102F30001EE000BF20F001003062306A20F0040083
:102F40003062FFF7C7FC054641F28837306A8007D8
:102F500020D5FFF7BFFC401BB8424FF00300F5D966
:102F600081E700BF20F001003062306A20F00400E9
:102F70003062FFF7AFFC054641F28837306A8007C0
:102F800008D4FFF7A7FC401BB842F7D9032002B0D2
:102F9000BDE8F081B8F1000F3FF59FAEF06920F079
:102FA0008050F06199E600BF40F4802030603068C6
:102FB00040F480301CE000BF20F480303060306886
:102FC00020F480203060FFF785FC054630688003E0
:102FD0007FF55EAEFFF77EFC401B64284FF00300D8
:102FE000F4D940E720F480303060306820F480204D
:102FF0003060FFF76FFC0546306880033FF548AE50
:10300000FFF768FC401B6428F6D9032002B0BDE836
:10301000F08100BF206AB0F5803F05D17168A268D9
:1030200021F40031114371607168626A21F47411F6
:1030300011430843706001203866FFF74BFC0446DB
:10304000306880013FF565AFFFF744FC001B0228A4
:103050004FF00300F4D906E7411E0020B0EB116FDA
:103060001CBF012070474EF21002CEF200025160E8
:103070004EF62351CEF20001F0230B700721906031
:1030800011607047704700007047000090F83C20C6
:10309000012A4FF0020236D010B580F83D200268B8
:1030A000D2F804E0D2F808C00C682EF07003234375
:1030B00040F2FF74C4F20004A24253600ADCB2F191
:1030C000804F13D040F20043C4F200039A420DD067
:1030D00011E000BF42F60043C4F201039A4205D05A
:1030E00040F60003C4F200039A4204D149682CF070
:1030F0008003194391600121002280F83D1080F87F
:103100003C20BDE81040104670470000002804BF76
:103110000120704710B590F83D1031B9002180F8BA
:103120003C10044600F070F82046022180F83D1063
:10313000016840F2FF740B68C4F2000442F6004CD0
:10314000A142C4F2010C15DCB1F1804F1AD040F25B
:103150000042C4F20002914214D0A14218DCB1F145
:10316000804F1DD040F20042C4F20002914217D0BD
:103170001AE000BF614505D040F60002C4F200022B
:103180009142EAD1826823F070031343A142E6DD45
:10319000614505D040F60002C4F20002914203D11D
:1031A000026923F440731343846923F08002D0F84A
:1031B00004E0C368224361450A60CB62C1F828E09D
:1031C00002D14269CCF8302001224A610B69DB0749
:1031D00003D00B6923F001030B6180F8462080F8CF
:1031E0003E2080F83F2080F8402080F8412080F881
:1031F000422080F8432080F8442080F8452080F861
:103200003D20002010BD0000006840F60001C4F21F
:103210000001884218BF704780B582B041F21C009F
:10322000C4F202000168002241F00401016000685C
:10323000002100F00400019001981E20FFF7CAFB56
:103240001E2002B0BDE88040FFF7B2BB90F83D10F1
:1032500001291CBF01207047022180F83D10006841
:1032600040F2FF72C168C4F20002904241F00101D5
:10327000C16009DCB0F1804F12D040F20041C4F2CD
:10328000000188420CD012E042F60041C4F2010174
:10329000884205D040F60001C4F20001884206D100
:1032A000816801F00701062904BF0020704701680A
:1032B00041F00101016000207047000001460068F4
:1032C00041F21113C26822F00102C260026A1A427E
:1032D00004D00122002081F83D207047026A40F2AC
:1032E00044431A42F5D1026822F001020260012231
:1032F000002081F83D20704790F83C20012A4FF0D3
:1033000002026CD080B580F83D20D0F800C04FF6A6
:103310007772DCF8083023EA0202CCF808200B6848
:103320004F2B29DC1F2B45DD202B46D0302B44D0E2
:10333000402B40F0AF80D1F804E0C968DCF82030C1
:10334000DCF8202022F00102CCF82020DCF8182044
:1033500022F0F00242EA011123F00A0242EA0E02D0
:10336000CCF81810CCF82020DCF8081041F0470108
:1033700021F0300128E000BF6F2B33DDB3F5005F93
:1033800074D0B3F5805F21D0702B40F08380D1E9F9
:1033900001E3C968DCF8082043EA0E0322F47F4207
:1033A00043EA01211143CCF80810DCF8081041F081
:1033B000770109E00BB1102B6CD1DCF8081021F07B
:1033C0007001194341F00701CCF8081000220121D7
:1033D00080F83D10002180F83C10BDE88040104688
:1033E000704700BF502B21D0602B53D1D1F804E09F
:1033F000C968DCF82030DCF8202022F01002CCF87C
:103400002020DCF8182022F4704242EA013123F037
:10341000A00242EA0E12CCF81810CCF82020DCF8FA
:10342000081041F0670121F01001CDE7D1F804E068
:10343000C968DCF82030DCF8202022F00102CCF84A
:103440002020DCF8182022F0F00242EA011123F0DB
:103450000A0242EA0E02CCF81810CCF82020DCF860
:10346000081041F0570121F02001ADE7D1E901E357
:10347000C968DCF8082043EA0E0322F47F4243EADD
:1034800001211143CCF80810DCF8081041F4804108
:103490009AE700BF01229AE77047000070B5044622
:1034A0000068C5680669B10716D515F0020113D08A
:1034B0006FF002010161012121778069800703D04B
:1034C0002046FFF7E9FF05E0204600F08FF8204690
:1034D00000F08EF800202077700719D515F0040051
:1034E00016D020686FF00401016102212177806904
:1034F00010F4407F04D02046FFF7CEFF06E000BF67
:10350000204600F073F8204600F072F80020207783
:10351000300717D515F0080014D020686FF00801A7
:10352000016104212177C069800703D02046FFF79D
:10353000B3FF05E0204600F059F8204600F058F8A7
:1035400000202077F00619D515F0100016D020685D
:103550006FF01001016108212177C06910F4407FEC
:1035600004D02046FFF798FF06E000BF204600F099
:103570003DF8204600F03CF800202077F00718BF07
:1035800015F0010002D1300609D412E020686FF076
:1035900001010161204600F02DF8300609D515F033
:1035A000800006D020686FF0800101612046FFF79F
:1035B00069FD700609D515F0400006D020686FF04F
:1035C00040010161204600F06DF8B00658BF70BDA3
:1035D00015F0200008D021686FF0200220460A6113
:1035E000BDE87040FFF750BD70BD0000704700009F
:1035F0007047000041F2F041C2F20001884218BF5A
:1036000070472DE9F04140F26C56C2F20006F079A5
:103610000130C1B20329F07140D10020F071FCF7F4
:1036200003FE48F21F58C5F2EB1880FB081251093F
:1036300001EBD271642201FB1204FCF7F5FD48F6A0
:103640003961C3F6E30180FB0112511001EBD27125
:1036500001EBC101401A451CA0B204F009FC04466C
:10366000A8B204F0EDFB0146204604F0D7FA044668
:1036700004F0CAFB40F6E037C2F200070546B88006
:10368000FCF7D2FD80FB0812111101EBD27132223E
:1036900001FB1200BD80F880B461B083BDE8F04149
:1036A000704700007047000090F84230202B0BD18B
:1036B00094460A4600294FF0010118BFBCF1000FE3
:1036C00006D10846704700BF02210846704700BF78
:1036D00070B582B001210163002522214563826219
:1036E000A0F82CC0456480F842100168C36B45F215
:1036F000616445F2C17E45F2E546C0F60004C0F6BD
:10370000000EC0F60006C3E90A4EC3E90C65043199
:10371000044618466346FEF7FBFE019521682046E5
:103720000A680192496801910199216931B300BF8A
:10373000016851E8031F026841F4807142E80313F5
:10374000E3B1016851E8031F026841F4807142E867
:1037500003139BB1016851E8031F026841F48071B3
:1037600042E8031353B1016851E8031F026841F4B2
:10377000807142E80313002BDAD100BF016851E8E1
:10378000051F026841F0010142E80513BBB301685F
:1037900051E8051F026841F0010142E8051373B3C7
:1037A000016851E8051F026841F0010142E8051374
:1037B0002BB3016851E8051F026841F0010142E89E
:1037C0000513002BDAD11AE0016851E8051F0268E1
:1037D00041F0400142E80513DBB1016851E8051FE3
:1037E000026841F0400142E8051393B1016851E8D5
:1037F000051F026841F0400142E805134BB1016822
:1038000051E8051F026841F0400142E80513002B12
:10381000DAD1016B012933D10021009101680A68D6
:103820000092496800910099016851E8031F0268FD
:1038300041F0100142E80313DBB1016851E8031FB6
:10384000026841F0100142E8031393B1016851E8A6
:10385000031F026841F0100142E803134BB10168F5
:1038600051E8031F026841F0100142E80313002BE6
:10387000DAD1002102B0BDE870400846704700BFB1
:10388000012102B0BDE87040084670472DE9F047BD
:10389000006844F60002C4F20002904236D043F6BB
:1038A0000001C4F20101884240F0998141F238548C
:1038B000C2F2000440F2E071C2F2000120464FF46F
:1038C0000072FFF7F1FEE06B40F26C540068C2F248
:1038D0000004016821F0060101602079012840F010
:1038E0007E816079012840F07A8140F2E070C2F276
:1038F0000000BCA1FCF762FF002800F070810120ED
:10390000A07000206070BDE8F08700BF40F20C0698
:10391000C2F20006307801281AD140F26C54C2F28B
:10392000000440F6E01104F12C00C2F200014FF453
:103930000072FFF7B9FEA06E0068016821F0060171
:1039400001600020A07001206070BDE8F08700BF1A
:1039500040F26C5541F28059C2F20005C2F20009F2
:1039600005F12C000F4649464FF40072FFF79CFE0C
:10397000A96E09680A6822F006020A6099F8011027
:103980002F81102944D0384606290DD003295FD154
:10399000082840F0248141F28050C2F20000BDE8C6
:1039A000F04701F0C5B800BF082840F0188199F829
:1039B0000200B9F8041099F80320400209BA40EA5D
:1039C000420040F6E032090CC2F200021152968A1F
:1039D00040F6000506F004000127C4F2010587EA5D
:1039E000900228461021FEF76FFF06F0020087EADA
:1039F000500228460821FEF767FF27EA06022846FC
:103A00000421FEF761FF4846BDE8F04700F066BFBD
:103A100099F8022099F8036099F8045099F8051074
:103A200046EA022E41EA052303EB0E07B7F5007FB5
:103A300088BFBDE8F087002B00F083802F020F4382
:103A4000013F032F01F0030C20D200224DE000BF04
:103A500040F6E01048F22941C2F20000C0F6000131
:103A6000FCF7ACFE10B101203070AEE040F6E01083
:103A700048F26541C2F20000C0F60001FCF79EFE6C
:103A8000002800F08780002030709EE0520240F64F
:103A9000E03742EA4602C2F20007A3EB0C0807EB4C
:103AA000020A00226FF0070509EB050709EB420146
:103AB000F87B0C7AB7F8116044EA00200AEB0504A1
:103AC0007B7D208130BAB7F81370000C0AEB4206F8
:103AD000897B708038BA000C0432A08141EA03204F
:103AE000904505F10805E081DED1BCF1000F28D03A
:103AF00009EB4203B3F8073002EB0E061BBA1F0CAA
:103B000040F6E033C2F20003BCF1010F23F8167057
:103B100017D0571C09EB4706B6F80760774436BA4A
:103B2000360CBCF1020F23F817600AD0911C09EB88
:103B30004102B2F8072001EB0E0012BA120C23F872
:103B4000102040F6E035C2F20005E88940F6000496
:103B5000B0FA80F0C4F20104420920461021FEF7B9
:103B6000B3FE288A0421B0FA80F042092046FEF70D
:103B7000ABFE688A0821B0FA80F042092046FEF7C1
:103B8000A3FE41F28050C2F20000BDE8F04700F011
:103B900085BD00BF40F6E01048F23D41C2F2000092
:103BA000C0F60001FCF70AFE10B101200CE000BFD6
:103BB00040F6E01048F23241C2F20000C0F60001C7
:103BC000FCF7FCFD08B10020287040F6E010C2F2BE
:103BD00000004FF40071FCF778FEE86A4068BDE829
:103BE000F08700BF2B4D5154545355425245435614
:103BF0000000000070470000B0B582B001680A689C
:103C0000CC684B6902F02F05202D04F0200505D16A
:103C100025B102B0BDE8B04001F03ABE5FEA027CD7
:103C20001EBF03F0010E04F4907313EB0E0341D199
:103C3000036BD50618D5012B16D114F0100313D041
:103C4000002201920A6801924A680192019A496928
:103C500049064BD4818DC28DC38D002B18BF914274
:103C600040F0F48102B0B0BD13062DD514F08003EE
:103C70002AD090F84120212AF4D18268B2F5805FE1
:103C800003D10269002A00F06782026A531C0362B2
:103C900012784A60C28C013A1304C284E2D1C86827
:103CA00020F08000C860C86840F04000C86002B0E2
:103CB000B0BD00BFD30718BF14F4807340F0D080AC
:103CC000530700F1D380D8E05206CBD514F0400260
:103CD000C8D0CA6822F04002CA60202180F8411092
:103CE00002B0BDE8B04000F0CDBC00BFC16B0A68B7
:103CF000526893B2002BB5D0858DAB42B2D2C2854B
:103D00008969202900F0A180016851E8031F026839
:103D100021F4807142E80313DBB1016851E8031F0D
:103D2000026821F4807142E8031393B1016851E8FD
:103D3000031F026821F4807142E803134BB101684C
:103D400051E8031F026821F4807142E80313002B3D
:103D5000DAD1016851E8051F026821F0010142E84B
:103D60000513C3B3016851E8051F026821F0010182
:103D700042E805137BB3016851E8051F026821F092
:103D8000010142E8051333B3016851E8051F0268D9
:103D900021F0010142E80513002BDAD11BE000BF3E
:103DA000016851E8051F026821F0400142E805134F
:103DB000DBB1016851E8051F026821F0400142E8CB
:103DC000051393B1016851E8051F026821F0400115
:103DD00042E805134BB1016851E8051F026821F064
:103DE000400142E80513002BDAD1202180F842106F
:103DF00000210163016851E8031F026821F01001EE
:103E000042E80313DBB1016851E8031F026821F0A7
:103E1000100142E8031393B1016851E8031F0268DF
:103E200021F0100142E803134BB1016851E8031F70
:103E3000026821F0100142E80313002BDAD1C16BB4
:103E400004460846FEF7D2F9204602214163818DDF
:103E5000C28D891A89B202B0BDE8B040FFF716BD25
:103E6000436C43F001034364530706D5BEF1000FD2
:103E700003D0436C43F002034364930706D5BEF1BD
:103E8000000F03D0436C43F004034364BCF1000F04
:103E900006D55EEA050303D0436C43F00803436490
:103EA000436C002B3FF4DEAE920605D525B10446E7
:103EB00001F0EEFC216820464969426C01F04001A6
:103EC00002F00802891800F0B98000BF016851E8CB
:103ED000031F026821F4907142E80313BBB3016829
:103EE00051E8031F026821F4907142E8031373B391
:103EF000016851E8031F026821F4907142E803133E
:103F00002BB3016851E8031F026821F4907142E865
:103F10000313002BDAD11AE0016851E8051F02688B
:103F200021F0010142E80513DBB1016851E8051FEA
:103F3000026821F0010142E8051393B1016851E8DC
:103F4000051F026821F0010142E805134BB1016829
:103F500051E8051F026821F0010142E80513002B1A
:103F6000DAD1016B012924D1016851E8031F0268ED
:103F700021F0100142E80313DBB1016851E8031F8F
:103F8000026821F0100142E8031393B1016851E87F
:103F9000031F026821F0100142E803134BB10168CE
:103FA00051E8031F026821F0100142E80313002BBF
:103FB000DAD1202180F842100021016301684969AB
:103FC000490640F1C380016851E8051F026821F0ED
:103FD000400142E80513DBB1016851E8051F0268A2
:103FE00021F0400142E8051393B1016851E8051F33
:103FF000026821F0400142E805134BB1016851E825
:10400000051F026821F0400142E80513002BDAD1B8
:10401000C16B002900F09A8045F2D942C0F6000237
:10402000044608464A63FEF705F900283FF41AAE35
:10403000E06B416B02B0BDE8B04008470446FFF7B3
:10404000D9FD0020606402B0B0BD00BF891A00BF76
:10405000026852E8032F036822F4907243E80325B4
:10406000BDB3026852E8032F036822F4907243E85C
:10407000032575B3026852E8032F036822F4907297
:1040800043E803252DB3026852E8032F036822F4A6
:10409000907243E80325002DDAD11AE0026852E855
:1040A000052F036822F0010243E80525DDB102680F
:1040B00052E8052F036822F0010243E8052595B177
:1040C000026852E8052F036822F0010243E8052543
:1040D0004DB1026852E8052F036822F0010243E85F
:1040E0000525002DDAD1202280F84220002202632B
:1040F000026852E8032F036822F0100243E8032508
:10410000DDB1026852E8032F036822F0100243E891
:10411000032595B1026852E8032F036822F01002CC
:1041200043E803254DB1026852E8032F036822F0EB
:10413000100243E80325002DDAD1022289B242633E
:1041400002B0BDE8B040FFF7A1BB00BF02B0BDE8C0
:10415000B040FFF74FBD00BF026A32F8023B6FF379
:104160005F234B60026295E5002804BF0120704781
:1041700010B5044690F8410028B9002084F84000AA
:10418000204600F063F8242084F841002068D4E938
:104190000212C36823F40053C360036923F440533D
:1041A0001A430261D4E904231143C268194341F25E
:1041B0000C639A431143C1604169A26921F44071C3
:1041C000114343F60002C4F201029042416103D060
:1041D000FEF71AFD02E000BFFEF72AFDD4E9002336
:1041E000192148439900B0FBF1F048F21F5CC5F279
:1041F000EB1CA0FB0C314FF69C734909C0F6FF7312
:1042000001FB0300322303EB0010A0FB0C03F020A2
:1042100000EA531000EB0110C3F34311084490600F
:104220001069202120F490401061506920F02A008C
:104230005061D06840F40050D0600020606484F881
:10424000411084F84210606310BD00002DE9F04178
:1042500086B00446006844F60001C4F2000100275D
:1042600088420597CDE9037702976BD043F60001AA
:10427000C4F20101884240F0D28041F21800C4F239
:104280000200016840F6000541F4804101600168C8
:10429000C4F2010501F4804101910199016802AE67
:1042A00041F004010160006840F21C0800F00400C5
:1042B000019001984FF400700290022003900320B7
:1042C000059028463146C4F20208FEF7EFF94FF494
:1042D00080600290002728463146CDE90377FEF73B
:1042E000E5F941F2E03508F13C00C2F20005802614
:1042F000C5E900072846C5E90276C5E90477C5E99E
:104300000677FEF7C3F8002818BFFDF769FFE563DD
:104310006C6241F2244508F12800C2F20005102128
:1043200085E883002846C5E90367C5E90577EF619D
:10433000FEF7ACF800284FF0250618BFFDF750FF38
:1043400063E000BF41F21800C4F20200416802AE0F
:1043500041F480214160416840F21C0801F4802151
:10436000019101990168C4F2020841F0080101605D
:104370000068314600F00800019001984FF4806019
:104380000290022003900320059040F60000C4F242
:10439000010000F580652846FEF788F94FF40060BB
:1043A000CDE90207284631460497FEF77FF941F22E
:1043B000684508F11400C2F200058026C5E900072F
:1043C0002846C5E90276C5E90477C5E90677FEF710
:1043D0005DF8002818BFFDF703FFE5636C6241F24A
:1043E000AC45C2F2000510200021C5E90080284636
:1043F000C5E90216C5E90411C5E90611FEF746F83C
:104400004FF0270608B1FDF7EBFE304600210022F1
:10441000A5636C62FEF7DEFA3046FEF7C9FA06B015
:10442000BDE8F08170470000704700002DE9F043BF
:1044300081B0044690F84100202809D100294FF0AE
:10444000010018BF002A07D101B0BDE8F08300BF0A
:10445000022001B0BDE8F0830020606421201D46E9
:104460000E4684F841001746FEF734FAA784E78425
:10447000A1688146B1F5805F02D1206900285DD036
:1044800037460020E28C2168002A5DD06A1C24D0C7
:10449000002D4AD0804600BF0868000608D4FEF709
:1044A00019FAA0EB0900A8427AD82168C868F3E796
:1044B00017B117F8010B04E038F8020B00276FF36F
:1044C0005F204860E08C0138E084E08C0028E3D174
:1044D0003AE000BF0A68120609D40A68120606D438
:1044E0000A6812065CBF0A685FEA0262F2D51FB171
:1044F00017F8012B05E000BF30F8022B00276FF3FF
:104500005F224A60E28C013AE284E28C002AE4D124
:104510001AE000BF30F8022B00276FF35F224A60D9
:10452000E28C013AE284E28C72B10A68120635D557
:10453000002FEFD017F8012BF1E700BF002730461E
:10454000E28C2168002AA1D1086840061ED42DB350
:10455000681C14D1086840062AD40868400627D48D
:104560000868400624D4086840064FF00000F1D5E2
:104570000DE000BF2068C1680068400618D4FEF74F
:10458000A9F9A0EB0900A842F4D909E000202021F4
:1045900084F8411001B0BDE8F08300BFFEF79AF93E
:1045A0000320202184F8411001B0BDE8F08300BF52
:1045B0000020202184F8411001B0BDE8F083000004
:1045C00090F84130202B09D1944600294FF0010288
:1045D00018BFBCF1000F05D11046704702221046EB
:1045E000704700BF70B5002221230162A0F824C0EB
:1045F000A0F826C0426480F841300468836B45F21D
:10460000D97E45F6890545F2E546C0F6000EC0F6AE
:104610000005C0F60006C3E90AE5C3E90C62221DE5
:10462000044618466346FDF773FF216820466FF085
:1046300040020A60016851E8051F026841F08001EC
:1046400042E80513DBB1016851E8051F026841F03B
:10465000800142E8051393B1016851E8051F026823
:1046600041F0800142E805134BB1016851E8051F94
:10467000026841F0800142E80513002BDAD10020E6
:1046800070BD00007047000070470000FEE70000AA
:10469000FEE70000FEE7000070470000F0B541F2C1
:1046A00080710578C2F2000144788378C27890F86E
:1046B00004E090F805C04FF6FF700D7045404AF2D7
:1046C000010080EA55064C708B70CA7081F804E0D6
:1046D00081F805C0EF0708BF6E0880EA5605F707A6
:1046E00008BF750880EA5506EF0708BF6E0880EA24
:1046F0005605F70708BF750880EA5506EF0708BF9B
:104700006E0880EA5605F70708BF750880EA550667
:10471000EF0708BF6E0880EA5605F70708BF75085F
:104720006C4080EA5405E60708BF650880EA550436
:10473000EE0708BF6C0880EA5405E60708BF650865
:1047400080EA5504EE0708BF6C0880EA5405E607C6
:1047500008BF650880EA5504EE0708BF6C0880EAC8
:104760005405E60708BF650880EA5504EE0708BF50
:104770006C08634080EA5304DD0708BF5C0880EAE8
:104780005403E50708BF630880EA5304DD0708BF48
:104790005C0880EA5403E50708BF630880EA530415
:1047A000DD0708BF5C0880EA5403E50708BF63081B
:1047B00080EA5304DD0708BF5C0880EA5403E5077C
:1047C00008BF63085A4080EA5203D40708BF530861
:1047D00080EA5302DC0708BF5A0880EA5203D40774
:1047E00008BF530880EA5302DC0708BF5A0880EA72
:1047F0005203D40708BF530880EA5302DC0708BFFE
:104800005A0880EA5203D40708BF530880EA5302CB
:10481000DC0708BF5A0882EA0E0280EA5203D70773
:1048200008BF530880EA5302DF0708BF5A0880EA2E
:104830005203D70708BF530880EA5302DF0708BFB7
:104840005A0880EA5203D70708BF530880EA530288
:10485000DF0708BF5A0880EA5203D70708BF53088A
:1048600080EA5302DF0708BF5A0882EA0C0280EA96
:104870005203D70708BF530880EA5302DF0708BF77
:104880005A0880EA5203D70708BF530880EA530248
:10489000DF0708BF5A0880EA5203D70708BF53084A
:1048A00080EA5302DF0708BF5A0880EA5203D7079D
:1048B00008BF530880EA5300DA0708BF5808887118
:1048C000070A40F26C50C2F200002C3008224FF46C
:1048D0007A73CF71BDE8F040FFF7A8BD70B541F223
:1048E000807190F802E0C578C2F200010478427845
:1048F00081F802E0CD70807840F6E033400240EA73
:104900004500C2F2000333F800C00C709CFA9CF022
:1049100088804FF6FF7084EA00034AF2010080EAC3
:1049200053044A70DE0708BF5C0880EA5403E607B8
:1049300008BF630880EA5304DE0708BF5C0880EA0A
:104940005403E60708BF630880EA5304DE0708BF84
:104950005C0880EA5403E60708BF630880EA530452
:10496000DE0708BF5C0880EA5403E60708BF630857
:104970005A4080EA5203D40708BF530880EA530222
:10498000DC0708BF5A0880EA5203D40708BF53085F
:1049900080EA5302DC0708BF5A0880EA5203D407B2
:1049A00008BF530880EA5302DC0708BF5A0880EAB0
:1049B0005203D40708BF530880EA5302DC0708BF3C
:1049C0005A0882EA0E0280EA5203D60708BF53084B
:1049D00080EA5302DE0708BF5A0880EA5203D6076E
:1049E00008BF530880EA5302DE0708BF5A0880EA6E
:1049F0005203D60708BF530880EA5302DE0708BFF8
:104A00005A0880EA5203D60708BF530880EA5302C7
:104A1000DE0708BF5A086A4080EA5203D60708BF7B
:104A2000530880EA5302DE0708BF5A0880EA52039F
:104A3000D60708BF530880EA5302DE0708BF5A08AA
:104A400080EA5203D60708BF530880EA5302DE0704
:104A500008BF5A0880EA5203D60708BF530880EA05
:104A60005302DE0708BF5A0882EA1C2280EA52037A
:104A7000D60708BF530880EA5302DE0708BF5A086A
:104A800080EA5203D60708BF530880EA5302DE07C4
:104A900008BF5A0880EA5203D60708BF530880EAC5
:104AA0005302DE0708BF5A0880EA5203D60708BF40
:104AB000530880EA5302DE0708BF5A085FFA8CF3F6
:104AC0005A4080EA5203D60708BF530880EA5302CF
:104AD000DE0708BF5A0880EA5203D60708BF53080A
:104AE00080EA5302DE0708BF5A0880EA5203D6075D
:104AF00008BF530880EA5302DE0708BF5A0880EA5D
:104B00005203D60708BF530880EA5300DA0708BFEC
:104B100058088871060A40F26C50C2F200002C302E
:104B200008224FF47A73CE71BDE87040FFF77EBC67
:104B300070B541F280714379C2F2000140F2013256
:104B40000A805A008A703BB340F6E03C03220023FF
:104B5000C2F2000C3CF8136002F1010E350AD4B227
:104B60000D555FFA8EF54E5544790133A34202F19B
:104B70000202EFD3032000EB44005FFA80FCBCF19B
:104B8000010F4FF6FF700FD100234FF0000E0022EF
:104B90005FEACC7471D19FE003205FFA80FCBCF126
:104BA000010F4FF6FF70EFD00CF0FE024AF2010346
:104BB000C2F1000E6FF001028C18A578E47868400D
:104BC00083EA5005C60708BF450883EA5500EE078B
:104BD00008BF680883EA5005C60708BF450883EA8E
:104BE0005500EE0708BF680883EA5005C60708BFEE
:104BF000450883EA5500EE0708BF680883EA5005B8
:104C0000C60708BF450883EA5500EE0708BF6808D5
:104C1000604083EA5004C50708BF440883EA540093
:104C2000E50708BF600883EA5004C50708BF4408C9
:104C300083EA5400E50708BF600883EA5004C5070B
:104C400008BF440883EA5400E50708BF600883EA08
:104C50005004C50708BF440883EA54000232E50740
:104C600008BF60080EEB02040234A5D1C3B2C0F342
:104C7000072E02325FEACC742ED08A5C42404AF2A0
:104C8000010080EA5203D60708BF530880EA5302A6
:104C9000DE0708BF5A0880EA5203D60708BF530848
:104CA00080EA5302DE0708BF5A0880EA5203D6079B
:104CB00008BF530880EA5302DE0708BF5A0880EA9B
:104CC0005203D60708BF530880EA5300DA0708BF2B
:104CD0005808C3B2C0F3072E40F26C5001EB0C042D
:104CE000C2F2000001F80C300CF102022C304FF43B
:104CF0007A7384F801E0BDE87040FFF797BB0000CD
:104D0000704700002DE9F04FADF5037D40F26C587F
:104D10000546C2F2000800200DF10C090C4688F887
:104D2000030048464FF400711646FBF7CEFD48F2EB
:104D30004F32C0F6000248464FF400712B46FBF795
:104D400065FB98F80300042868D840F2E07A41F245
:104D5000E015C2F2000AC2F2000508F12C0748462D
:104D6000FBF749FD82B241F23850C2F200004946D9
:104D7000FFF726FC98F80000D0B198F8030048F23D
:104D80004942431C28464FF40071C0F60002AC466D
:104D90003D460527CDE900792F466546FBF736FBF2
:104DA0002846FBF728FD82B238462946FFF708FC63
:104DB000FDF790FD8346FDF78DFDA0EB0B00B042A3
:104DC0000FD200BF50462146FBF7F8FC002843D124
:104DD0000A20FDF7EDFBFDF77DFDA0EB0B00B042D7
:104DE000F0D398F8000088B148F23C3228464FF4DE
:104DF0000071C0F600025346FBF708FB2846FBF79C
:104E0000FAFC82B238462946FFF7DAFB98F803002D
:104E10000130C1B2052988F80300A0D398F800003A
:104E2000A0B141F2E014C2F2000421A220464FF4E6
:104E300000710523FBF7EAFA2046FBF7DCFC08F1DA
:104E40002C0182B208462146FFF7BAFB00200DF57F
:104E5000037DBDE8F08F00BF98F80000A8B141F2D3
:104E6000E015C2F2000548F23C32C0F600022846C6
:104E70004FF400712346FBF7C9FA2846FBF7BBFC49
:104E800082B238462946FFF79BFB40F2E070C2F23F
:104E900000004FF40071FBF718FD41F23850C2F2E8
:104EA00000000068406801200DF5037DBDE8F08F2B
:104EB0004661696C656420746F2073656E64204D73
:104EC000515454206D657373616765206166746524
:104ED0007220256420726574726965732121210A2C
:104EE000000000002DE9F04F83B040F26C570346FC
:104EF000C2F2000700201646F87040F2E05048F277
:104F00004F328946C2F20000C0F600024FF4007131
:104F1000FBF77CFAF878042868D841F2E01A40F2EE
:104F2000E07B40F2E054C2F2000A07F12C05C2F225
:104F3000000BC2F200041CE048F23C3250464FF431
:104F40000071C0F600025B46FBF760FA5046FBF7C3
:104F500052FC82B2384651463D46FFF731FB40F2E3
:104F60006C57C2F20007F8780130C1B20529F87019
:104F70003CD22046FBF73FFC82B241F23850C2F2ED
:104F8000000021464FF47A73FFF750FAF87848F2A0
:104F90004942431C50464FF40071C0F600020527F9
:104FA000CDE90074FBF732FA5046FBF724FC82B2DD
:104FB000284651462F46FFF703FBFDF78BFC804642
:104FC000FDF788FCA0EB0800B042B5D25846494630
:104FD000FBF7F4FB20BB0A20FDF7EAFAFDF77AFCA9
:104FE000A0EB0800B042F1D3A6E700BF41F2E01405
:104FF000C2F200041EA220464FF400710523FBF705
:1050000005FA2046FBF7F7FB07F12C0182B20846B0
:105010002146FFF7D5FA002003B0BDE8F08F00BFAE
:1050200041F2E014C2F2000448F23C32C0F6000241
:1050300020464FF400714B46FBF7E8F92046FBF79A
:10504000DAFB82B238462146FFF7BAFA40F2E07046
:10505000C2F200004FF40071FBF737FC41F2385008
:10506000C2F2000000684068012003B0BDE8F08F84
:105070004661696C656420746F206170706C792082
:1050800073657474696E6773206166746572202538
:105090006420726574726965730D0A0010B541F27F
:1050A000F040C2F20000FEF709F940F26C54C2F27F
:1050B0000004002048F21441A0804AA0C0F600017C
:1050C00042F21072FFF70EFF002800F089804FF4C3
:1050D0007A70FDF76DFA48F2144144A0C0F6000161
:1050E0004FF4FA62FFF7FEFE002879D04FF47A7091
:1050F000FDF75EFA48F214413DA0C0F600014FF4FE
:10510000FA62FFF7EFFE00286AD04FF47A70FDF7DD
:105110004FFA48F2144138A0C0F600014FF4FA6289
:10512000FFF7E0FE00285BD04FF47A70FDF740FAFD
:1051300034A03CA142F21072FFF7D4FE00284FD0F9
:105140004FF47A70FDF734FA48F2144139A0C0F6F2
:1051500000014FF4FA62FFF7C5FE002840D04FF47B
:105160007A70FDF725FA48F2543048F21441C0F63F
:105170000000C0F6000140F6B832FFF7B3FE78B386
:105180004FF47A70FDF714FA48F2C030C0F6000010
:105190002BA140F6B832FFF7A5FE002808BF10BDCE
:1051A0004FF47A70FDF704FA48F28B3048F214415C
:1051B000C0F60000C0F600014FF4FA62FFF792FE5D
:1051C00070B14FF47A70FDF7F3F940F2011141F23A
:1051D000F040C2F20000A180BDE81040FEF736B8F2
:1051E00010BD00BF41542B525354000041540000E5
:1051F000415445300000000041542B43574D4F446B
:10520000453D310041542B43574A41503D22444FC4
:105210004E4720534F4E222C223035303431393016
:10522000312200005749464920434F4E4E454354D2
:105230004544000041542B4349504D55583D3000E2
:105240004D515454434F4E4E454354454400000085
:1052500080B548F28B3048F21441C0F60000C0F629
:1052600000014FF47A72FFF73DFE002808BF80BDB1
:105270004FF47A70BDE88040FDF79AB9FDF730BB76
:105280007047000041F2F040C2F20000FEF706B99C
:10529000F0B5ADF5017D0546FBF790FA002800F06A
:1052A000E78028467B21FBF77FFA044628467D21CC
:1052B000FBF796FA002C18BF002829D16EA141F205
:1052C000E014D1E9060EC2F200040F1DDFF8A8C1F8
:1052D0008CCFD1E90465A061088CC4E900C2C4E99F
:1052E0000237C4E90465C4F81CE020842046FBF7BB
:1052F00082FA40F26C51C2F200012C3182B20846AF
:1053000021460DF5017DBDE8F040FFF759B900BF1A
:10531000A042D3D9001BB0F5FF7F11DD41F2E014AC
:10532000664866A1C2F200040F1D8CCFD1E9046566
:1053300084E88D00087E266165612076D6E700BF8F
:10534000451C01A821462A46FBF7E6FA00214155F3
:105350009DF804301BB3821CA3F120075E2F98BF79
:1053600000F8013B12F8013CCBB1A3F120075E2FFE
:1053700098BF00F8013B13788BB1A3F120075E2F93
:1053800098BF00F8013B53784BB1A3F120075E2F83
:1053900098BF00F8013B93780432002BDCD10170F8
:1053A00001A800F08DFB002842D040F60005C4F2B1
:1053B0000105044605F5806002210122FDF784FA0B
:1053C00036A1204600F05EFB80B3064600F06EFB7F
:1053D00060B3306950B3FBF7B5F940F26C56C2F2D6
:1053E00000060127F06027EA000228461021FDF799
:1053F0006BFAF068082100F0020087EA50022846A4
:10540000FDF762FAF068042100F0040087EA9002D8
:105410002846FDF759FAF0684FF4005100F00800F3
:1054200087EAD00205F50060FDF74EFA20461DE040
:1054300041F2E0141A481AA1C2F200040F1DD1E98A
:10544000046589698CCF84E88D002046C4E9046531
:10545000A161FBF7D0F940F26C51C2F200012C318E
:1054600082B208462146FFF7ABF8002000F0DAFAD6
:105470000DF5017DF0BD00BF5B4661696C65645D43
:10548000204461746120646F65736E2774206861C5
:105490007665204A534F4E210A00000054423200E4
:1054A0005B4661696C65645D205061727365204A7A
:1054B000534F4E204661696C65640A005B46616922
:1054C0006C65645D204A534F4E20746F6F206C6F83
:1054D0006E67210A00000000406A0021C185C18476
:1054E000FEF788BB406A01684A6990F84130212B79
:1054F0002DD112F080022AD00021C184016851E828
:10550000031F026821F0C00142E80313DBB1016808
:1055100051E8031F026821F0C00142E8031393B170
:10552000016851E8031F026821F0C00142E803133B
:105530004BB1016851E8031F026821F0C00142E845
:105540000313002BDAD1202180F84110016849694A
:1055500090F84220222A40F07D8011F0400179D05D
:105560000021C185016851E8031F026821F4907190
:1055700042E80313BBB3016851E8031F026821F43A
:10558000907142E8031373B3016851E8031F026886
:1055900021F4907142E803132BB3016851E8031F13
:1055A000026821F4907142E80313002BDAD11AE06B
:1055B000016851E8051F026821F0010142E8051366
:1055C000DBB1016851E8051F026821F0010142E8E2
:1055D000051393B1016851E8051F026821F001012C
:1055E00042E805134BB1016851E8051F026821F03C
:1055F000010142E80513002BDAD1016B012924D106
:10560000016851E8031F026821F0100142E803130A
:10561000DBB1016851E8031F026821F0100142E884
:10562000031393B1016851E8031F026821F01001D0
:1056300042E803134BB1016851E8031F026821F0EF
:10564000100142E80313002BDAD1202180F8421028
:1056500000210163416C41F010014164FEF7CABAB8
:105660000168406A0968890600F19F800021C185B0
:10567000016851E8031F026821F4807142E80313B6
:10568000E3B1016851E8031F026821F4807142E828
:1056900003139BB1016851E8031F026821F4807174
:1056A00042E8031353B1016851E8031F026821F473
:1056B000807142E80313002BDAD100BF016851E882
:1056C000051F026821F0010142E80513BBB3016820
:1056D00051E8051F026821F0010142E8051373B388
:1056E000016851E8051F026821F0010142E8051335
:1056F0002BB3016851E8051F026821F0010142E85F
:105700000513002BDAD11AE0016851E8051F026881
:1057100021F0400142E80513DBB1016851E8051FA3
:10572000026821F0400142E8051393B1016851E895
:10573000051F026821F0400142E805134BB10168E2
:1057400051E8051F026821F0400142E80513002BD3
:10575000DAD1202180F84210016B012925D100BF48
:10576000016851E8031F026821F0100142E80313A9
:10577000DBB1016851E8031F026821F0100142E823
:10578000031393B1016851E8031F026821F010016F
:1057900042E803134BB1016851E8031F026821F08E
:1057A000100142E80313002BDAD100214163016BA1
:1057B000012918BFFEF736BE818DFEF767B80000DD
:1057C000406A01214163016B012918BFFEF72CBE1D
:1057D000818D4908FEF75AB80168406A0968890650
:1057E00048BFFEF74FBF0021C18400BF016851E8E8
:1057F000051F026821F0800142E8051383B30168A8
:1058000051E8051F026821F0800142E805133BB30F
:10581000016851E8051F026821F0800142E8051384
:10582000F3B1016851E8051F026821F0800142E8E8
:105830000513002BDAD113E0016851E8031F026859
:1058400041F0400142E80313002B08BF7047016894
:1058500051E8031F026841F0400142E8031393B18D
:10586000016851E8031F026841F0400142E8031358
:105870004BB1016851E8031F026841F0400142E862
:105880000313002BD8D17047406AFEF7FDBE00001D
:1058900081B090F84210222921D183680246B3F5E5
:1058A000805F09D152F8281F52F8183C002B63D0B2
:1058B00003685B680AE000BF52F8281F13B9036948
:1058C000002BF5D003685B6803F07F030B70116851
:1058D00001311160C18D01390A04C18502D001B0C6
:1058E000704700BF0168CA6822F02002CA60CA6817
:1058F00022F48072CA604A6922F001024A612021C2
:1059000080F8421000214163026B012A3CD10163FF
:10591000016851E8031F026821F0100142E80313F7
:10592000DBB1016851E8031F026821F0100142E871
:10593000031393B1016851E8031F026821F01001BD
:1059400042E803134BB1016851E8031F026821F0DC
:10595000100142E80313002BDAD101680A68D2066D
:1059600006D5002200920A680092496800910099C9
:10597000818D01B0FDF78ABF026852686FF35F2224
:1059800021F8022B8162A5E701B0FEF74BBD0000B4
:1059900041F23850C2F20000FEF72EB940F29850A2
:1059A000C2F20000FEF728B9FEE70000C0B30268AB
:1059B000B2B3D0E901C1614528BF704770B5CCF1E1
:1059C000000E0B1DD41814F8041C202920D80EEB4F
:1059D0000305D91E032D81601DD014F8036C202E01
:1059E00017D8991E022D816015D014F8026C202E54
:1059F0000FD8591E012D81600DD014F8014C202CB8
:105A000007D8836004330EEB03010429DAD102E0E6
:105A1000191F614502D1ACF101018160BDE8704000
:105A200070470000002808BF7047F0B581B040F211
:105A300014460446C2F20006002703E071682846B7
:105A40008847DCB1E16825462468C80504D4A86805
:105A500010B1FFF7E7FFE968C80505D4286918B158
:105A600071688847E9682F618805E7D4286A0028AB
:105A7000E4D0716888472F62E0E700BF01B0BDE85D
:105A8000F0407047B0B54FF0000468B10D4659B111
:105A9000846844B1216A31B12846FAF769FF18B128
:105AA0002468002CF6D100242046B0BD00280FBF8A
:105AB0000020007B1038B0FA80F018BF4009704712
:105AC000002804BF0020704710B50446FAF793FE83
:105AD000411C204600220023BDE81040AFF30080A7
